:02000000DD2EF3
:0E000600213083120313FD00FD0B07280800B4
:100014000F3083120313FC004730FD00FD0B102842
:0A002400FC0B10280000000008008B
:06002E00000000000800C4
:1000340083120317A81B21280313881323280313EF
:1000440088170317281B2928031308132B280313C5
:1000540008170317A81A3128031388123328031327
:1000640088160317281A3928031308123B28031388
:10007400081683166E184128831208154328831224
:1000840008118815172088110317A8194C28031381
:1000940088134E28031388170317281954280313A9
:1000A40008135628031308170317A8185C2803130A
:1000B40088125E280313881603172818642803136C
:1000C400081266280313081683166E186C28831208
:1000D40008156E28831208118815172088118316B5
:0C00E4006E1C76280A20772803200800F4
:0E00F000F201F101F001F801F3010030080007
:1000FE007B15FB1F89280130F300F201F101F0019D
:08010E00FA0DF20CFF300800AD
:08011600FA1FF213003008008B
:10011E000030831203172406031D97280030230690
:10012E000130031D0030F0007018A0280313891051
:10013E00A22803138914003003172406031DA928CF
:10014E005A3023060130031D0030F0007018B2281B
:0C015E0003130910B4280313091408004F
:10016A00A0017208031DCA287108F2007008F10084
:10017A00F001A0157208031DCA287108F200F101E6
:10018A00A011201672080319D8282008F302031DAB
:10019A00031CDC280310F21BE028F00DF10DF20D10
:1001AA00F30BD028DC280130FC007820E328023049
:0E01BA00FC007F20E3280430FC008B200800AE
:0E01C8008316031368088A0067088200080087
:1001D600FB14FB1FF528FF30F300F200F100F000DE
:0801E600FA0DF20CFF300800D5
:1001EE00710DF80DF90D7408F8027508031C750FE2
:1001FE00F902F00DF10D0F30FC00710DF80DF90D37
:10020E007408701C1029F8027508031C750FF9028A
:10021E001529F80775080318750FF907F00DF10D7C
:10022E00FC0B0429701821297408F80775080318A7
:08023E00750FF907000008002C
:06024600FB15FF3008006B
:10024C0083120317A301A501A6011030A7000430E7
:10025C00260203185429F03086002709831603134D
:10026C008600172017200F3083120605F000700847
:10027C000317A400700803194E292508A3002408AD
:10028C0003194C29A40CA413A30A45290430A60075
:10029C00A70D27100430A507A60A2D292308F00066
:0202AC00080048
:1002AE00063083120313FD00FD0B5B2900000800CE
:1002BE00831603136E10831203172308A8001A2047
:0602CE0083166E14080007
:1002D400831203171F0883160313D4008312031712
:1002E400200883160313D500003083120317200659
:1002F400031D7E2900301F06031DA229A1013230EF
:1003040021020318A2291F08A3002008A4008F209B
:1003140007160330FC001230FD00FD0B8F29FC0B87
:100324008F29000007123230FC00DD30FD00FD0B88
:100334009929FC0B9929000000000317A10A8129BF
:1003440000302006031DA8295A301F06031DCC299E
:10035400A101323021020318CC291F08A300200870
:10036400A4008F2007160430FC00E430FD00FD0BD0
:10037400B929FC0BB929000007123130FC000B30FD
:10038400FD00FD0BC329FC0BC3290000000003176B
:06039400A10AAB290800DC
:10039A00DF298030831203179F00F229C0309F00A3
:1003AA00F22994309F00F229D4309F00F22980303C
:1003BA009F00F229831203171F08013A0319CE2955
:1003CA001F08023A0319D3291F08033A0319D62929
:1003DA001F08043A0319D929DC292003F0001F0851
:1003EA00F00770089F00831603136E1470088312B7
:1003FA000317A8001A2083166E1083120317210808
:0A040A00A8001A2083166E140800E3
:100414001C2A8030831203179F002F2AC0309F00AC
:100424002F2A94309F002F2AD4309F002F2A803007
:100434009F002F2A831203171F08013A03190B2A5E
:100444001F08023A0319102A1F08033A0319132A32
:100454001F08043A0319162A192A2003F0001F085A
:10046400F00770089F007008A8001A2083166E1009
:1004740083120317A201220821078400000803192C
:100484004D2A2208210784000008A3005F2183125B
:0E0494000317A20A3D2A831603136E140800F4
:1004A2000130831203171F02031C722A1F08103C1B
:1004B200031C722A01301F02F000F101031CF10338
:1004C2007B30F00707300318013EF10770088316EE
:1004D2000313E7007108E800E4208A110A12F00011
:0604E200732AF00108007E
:1004E80083120313FB017308031D77080319CB2A32
:1004F80072087606FA007708F3077E30031C882A0C
:10050800F3020318CE2A8B2AF302031CD12A72089D
:10051800F8007108FC007008FD00F817F6170310C2
:10052800F201F101F0011830A0007D1CA52A740821
:10053800F00775080318750FF10776080318760F8A
:10054800F207F20CF10CF00CF80CFC0CFD0C03108B
:10055800A00B992AF21BB52AF80DF00DF10DF20D3A
:10056800F3037B1B701CC72AF81FC72AF00A03195C
:10057800F10A0319F20A031DC72AF20CF10CF00C58
:10058800F30A0319CE2AFA1FF2130030D32A0130D6
:100598007820D32A0230EB20D32A04307F200000B1
:0205A800080049
:1005AA00831203171F08F2002108F0002208F10045
:1005BA000130A102031CA203700871040319EB2A7B
:1005CA007208840020088000F20AD92A1F08F00065
:0205DA00080017
:1005DC00831203137408003A031DFD2A7508003AB0
:1005EC00031DFD2AFF30F0007F30F100562B8312E3
:1005FC000313FD01F901F8017108700403190034AB
:10060C0071087506FA00FA1BFD09FB01F51F132B87
:10061C00F409F509F40A0319F50AF11F1A2BF0096C
:10062C00F109F00A0319F10A71087504FA00FA1BB2
:10063C002F2BF7207B18422BFD1F0034F009F109FA
:10064C00F00A0319F10AF809F909F80A0319F90A69
:10065C000034F51F3E2BF11B3A2B7108F900700882
:10066C00F800F101F001222BF101F001F00A003445
:10067C00F109F009FB0A1F2BF80A0319F90A74088F
:10068C007802031D222B75087902031D222BF90118
:10069C00F801F00A0319F10AF11F222B0000FF34B4
:0206AC00080044
:1006AE00262170089F0003170F300605F00003196E
:0E06BE00622B57215A2B03171F08F00008006B
:1006CC00831203171F088400000803197A2B1F08D4
:1006DC0084000008F1002008840071080006031D46
:1006EC007A2B9F0AA00A662B1F0884000008F000D2
:1006FC00200884000008F002F101031CF10308003B
:10070C00831203137008F8007108F000F101F20174
:10071C00F301FB01FC019630F300FA017008F100C3
:0C072C007808F000F801F201B520080088
:10073800831203137408003A031DB72B7508003A97
:10074800031DB72B7608003A031DB72B7708003A2C
:10075800031DB72BFF30F000FF30F1007F30F200AF
:10076800FF30F300522C8312031377080319462C29
:1007780073080319492C720876068039FA00F217B3
:10078800F617A0017208F8007108FC007008FD0057
:100798007408FD027508031C750FFC027608031C1B
:1007A800760FF802F801FC01FD01031CE22B03108F
:1007B800F20CF10CF00CF80C0130A0007708F302F1
:1007C800031CEC2B7E302007F30703184C2CF12B6D
:1007D8007E302007F307031C4F2C1830FA07FD0D55
:1007E800FC0DF80DF00DF10DF20DA00D7408F002DE
:1007F8007508031C750FF1027608031C760FF202C8
:10080800760DA004201C0A2C7D14152C7408F00702
:1008180075080318750FF10776080318760AF207AA
:100828007D10FA031F307A05031DF32B7B1B7D1CFB
:100838003C2C0310F00DF10DF20DA00D7408F00220
:100848007508031C750FF1027608031C760FF20277
:10085800760D20040139FD070318FC0A0319F80A6C
:10086800031D3C2CF80CFC0CFD0CF30A03194C2C52
:10087800FA1FF8137808F2007C08F1007D08F000F0
:100888000030512C01302321512C02307820512C7A
:0E0898000430EB20512C08307F2000000800B7
:1008A6008312031799019A019B019C019D019E01E8
:1008B600E9309F00A0010530A1000030A200D5223A
:1008C6000130A8001A20013003179F000130A00054
:1008D6005730A1000A228312031799019A0180302A
:1008E6001A06F00080307002031D7B2C04301902BA
:1008F6000318B62C83160313EF016F08003A031D85
:100906008A2C5723700883160313EF00802C6F0878
:10091600831203179F0051228312031370080317D3
:1009260098007008003A0319B52C1908E93E8400AE
:100936001808800002309F00190AA0002A30A10082
:10094600CD2183120317990A03199A0A0330FB0073
:100956000830FC007730FD00FD0BAF2CFC0BAF2CF4
:10096600FB0BAF2C722C83160313ED01E9308312B7
:1009760003179F00AF30A000662300307106031DE9
:10098600C62C00307006031DD62C0130A8001A2094
:10099600013003179F000130A0006730A1000A2232
:1009A600F001F1016A2D831203179B0A03199C0AB1
:1009B6000130A8001A20013003179F000130A00063
:1009C600A030A1000A228312891409100B30FB0003
:1009D6002630FC005D30FD00FD0BEF2CFC0BEF2CF0
:1009E600FB0BEF2C00000000803003171C06F00004
:1009F60080307002031D012D03301B02031C692D7C
:100A06000130A8001A20013003179F000130A00012
:100A16002E30A1000A220130831203179F000A30EC
:100A2600A0005530A1000A223C30831203179D0016
:100A360000309E008030F00080301E067002031DDC
:100A4600262D1D08003C0318672D01309F00073036
:100A5600A0000A30F4000030F5001D08F0001E0862
:100A6600F100EE22303070070317A100CD210130CE
:100A7600831203179F000830A0000A30F4000030EC
:100A8600F5001D08F0001E08F100EE227808F000BF
:100A96007908F100303070070317A100CD21053029
:100AA600FB00DF30FC00BB30FD00FD0B582DFC0BBE
:100AB600582DFB0B582D0000000001308312031740
:100AC6009D02031C9E031D2D9B019C01632C0800A7
:100AD60083120313FA017308031D7A147708031DA2
:100AE600FA147A080319B72D033A0319822D7A18D6
:100AF6007F2DF61FB52DB32DF21FB32DB52D720820
:100B06008039FA00F21376088039F6137A0603194B
:100B1600902D7A080319B32DB52D770873020319A2
:100B2600972D031CAB2DAF2D7608720203199E2D4F
:100B3600031CAB2DAF2D750871020319A52D031CDF
:100B4600AB2DAF2D740870020319B72D0318AF2D06
:100B5600FA080319B52DB32DFA080319B32DB52DCF
:100B66000314080003100800031403150800080006
:100B76008312031798019901031307150630FD0028
:100B8600FD0BC32D0000071103138719E22D031770
:100B96001808F1001908F200980A0319990A720850
:100BA600753C031DD82D7108303C0318DF2DF0016C
:100BB600F101F201F301142E00000000C72D031706
:100BC600980199010313871DFC2D03171808F100DE
:100BD6001908F200980A0319990A7208753C031D50
:100BE600F62D7108303C0318F92DFC2D000000008D
:100BF600E52D03171808F0001908F10086232830A0
:100C0600F4007E30F5000C30F6007A30F7007422DE
:100C16000030F4000030F5000030F6008030F700B8
:040C26009C23080003
:100C2A008312031798019901031307140630FD0074
:100C3A00FD0B1D2E00000710031387183C2E031707
:100C4A001808F1001908F200980A0319990A72089B
:100C5A00753C031D322E7108303C0318392EF00101
:100C6A00F101F201F3016E2E00000000212E03179C
:100C7A00980199010313871C562E03171808F100CF
:100C8A001908F200980A0319990A7208753C031D9B
:100C9A00502E7108303C0318532E562E00000000C7
:100CAA003F2E03171808F0001908F1008623283090
:100CBA00F4007E30F5000C30F6007A30F70074222A
:100CCA000030F4000030F5000030F6008030F70004
:040CDA009C2308004F
:0C0CDE00831203179F01A0016A21080087
:100CEA005A30831203179F000030A0006A210800BF
:0A0CFA00FF30831603138600080084
:100D04008316031388110811081288120813881314
:100D140083128811081188130813881208120A20F4
:100D24000A200A20881608168815172088110A2018
:100D34008815172088110A208815172088110A2081
:100D440008128815172088110A2088151720881181
:100D5400881288178815172088110A208813081606
:100D640088151720881108128815172088110A2061
:100D740088151720881108168815172088110A204D
:100D8400081288151720881188170817881608165E
:0E0D94008815172088110A2083166E14080097
:100DA200E4208A110A128000840AE70A0319E80A79
:080DB200F003031DD12E08001F
:100DBA00A4270630831603139F000712891009100F
:100DCA00091507108714071187158312891009104E
:100DDA0082260C3083120317A8001A207D268A1552
:060DEA0000208A11F72E23
:100F480021308400463083120313F000FD308316ED
:100F5800E7000630E800D126A03084000F30831265
:100F6800F0008C308316E7000730E800D1266730A0
:100F7800840009308312F0009B308316E7000730A5
:100F8800E800D126AF30840038308312F0004330B7
:0C0F98008316E7000730E800D1260800AF
:101000000030831603135506031D082800305406CC
:10101000031D11280130831203179400003095003E
:10102000152883120317940195018A1115268A1534
:10103000831203137008031790007108910072085F
:101040009200730893008A11BB258A15033083121E
:101050000313FB000830FC007730FD00FD0B2E2849
:10106000FC0B2E28FB0B2E28003083165506031D83
:101070003B2800305406031D442801308312031717
:1010800094000030950048288312031794019501BD
:101090001008F4001108F5001208F6001308F70014
:1010A0000030F0000030F1004830F2008330F300EF
:1010B0008A116B258A150130031C0030F00070087E
:1010C00003193629031714081504031936290C309F
:1010D000A8008A111A208A1501300317A8008A1166
:1010E0001A208A15013003179F000130A000D63066
:1010F000A1008A110A228A150630FB001330FC0079
:10110000AD30FD00FD0B8228FC0B8228FB0B8228F2
:10111000000000008A1153248A150630831203133D
:10112000FB001330FC00AD30FD00FD0B9528FC0BDF
:101130009528FB0B95280000000001300317A8003C
:101140008A111A208A15013003179F000130A00070
:10115000C430A1008A110A228A158A1175268A15BF
:10116000960197018A11BB258A1583120313700813
:10117000F4007108F5007208F6007308F7000030FB
:10118000F0000030F1007030F2008230F3008A117C
:101190006B258A15013003180030F0007008031920
:1011A000EC280230FB000430FC00BA30FD00FD0BDF
:1011B000D728FC0BD728FB0BD72800000317960A6B
:1011C0000319970A1708003C031DE8281608643C19
:1011D0000318EB28EC28B2288A1115268A158312E9
:1011E00003137008F4007108F5007208F600730824
:1011F000F7000030F0000030F1004830F20083309A
:10120000F3008A116B258A150130031C0030F000B1
:101210007008031919290230FB000430FC00BA30B1
:10122000FD00FD0B1129FC0B1129FB0B11290000FE
:10123000EC2801300317A8008A111A208A15013002
:1012400003179F000130A000B430A1008A110A22C8
:101250008A158A116F268A150830A8008A111A206B
:101260008A15013003179400003095000313091DFF
:101270001B2A03171408150403191B2A0C30A80095
:101280008A111A208A1501300317A8008A111A2022
:101290008A15013003179F000130A0002130A10002
:1012A0008A110A228A150430FB000C30FC0033300E
:1012B000FD00FD0B5929FC0B5929FB0B5929000096
:1012C0000000013083120317A8008A111A208A1522
:1012D000013003179F000130A0003530A1008A11B2
:1012E0000A228A158A1175268A15960197018A1194
:1012F00015268A15831203137008F4007108F5008F
:101300007208F6007308F7000030F0000030F100BA
:101310004830F2008330F3008A116B258A150130C2
:1013200003180030F00070080319B1290230FB00E7
:101330000430FC00BA30FD00FD0B9C29FC0B9C29FD
:10134000FB0B9C2900000317960A0319970A17083C
:10135000003C031DAD291608643C0318B029B129CF
:1013600077298A1115268A15831203137008F40051
:101370007108F5007208F6007308F7000030F000FD
:101380000030F1004830F2008330F3008A116B2501
:101390008A150130031C0030F0007008031DF0298D
:1013A0008A11BB258A15831203137008F400710893
:1013B000F5007208F6007308F7000030F000003006
:1013C000F1007030F2008230F3008A116B258A152B
:1013D0000130031C0030F0007008031DF029FE29C5
:1013E0000230FB000430FC00BA30FD00FD0BF62992
:1013F000FC0BF629FB0BF6290000B129013003177D
:10140000A8008A111A208A15013003179F000130A5
:10141000A0004530A1008A110A228A158A116F2680
:101420008A150830A8008A111A208A15013003177E
:0A1430009400003095001528080014
:100DFA004534783469347434203452346534713467
:0A0E0A007534653473347434003419
:0E0E140057346134693474343A342034003475
:100E22004F34703465346E3469346E346734203430
:100E320044346F346F3472342E342E342E340034F2
:100E420043346C346F34733469346E346734203411
:100E520044346F346F3472342E342E342E340034D2
:040E620073340034B1
:100E660045346E347434653472342034503461340D
:100E76007334733477346F34723464343A340034F0
:0A0E86003134323433343434003494
:100E900043346C346F34733469346E3467342034C3
:100EA00044346F346F3472342E342E342E34003484
:100EB0004F34703465346E3469346E3467342034A2
:100EC00044346F346F3472342E342E342E34003464
:040ED00000340034B6
:100ED4002E342E342E342E34573445344C3443348B
:100EE4004F344D3445342E342E342E342E342E3497
:020EF4000034C8
:100EF6003134323433344134343435343634423494
:100F060037343834393443342A343034233444348F
:020F16000034A5
:100F1800573472346F346E3467342034503461344B
:0E0F28007334733477346F34723464340034AD
:100F360043346F3472347234653463347434213418
:020F4600003475
:02400E004A2F37
:00000001FF
