:02000000D82DF9
:10000800FF00030E8301E5000A08E6008A0166087E
:0C0018008A00650E8300FF0E7F0E0900B9
:0E002400213083120313FD00FD0B1628080087
:06003200000000000800C0
:100038000F3083120313FC004730FD00FD0B22280C
:0A004800FC0B222800000000080055
:08005200FA1FF2130030080050
:0E005A00F201F101F001F801F301003008009D
:100068007B15FB1F3E280130F300F201F101F0017E
:08007800FA0DF20CFF30080044
:06008000FB15FF30080033
:100086007B14FB1F4E28F201FA1FFF30F200F1002D
:0A009600F000FA0DF20CFF30080034
:1000A000A0017208031D65287108F2007008F100B4
:1000B000F001A0157208031D65287108F200F10116
:1000C000A01120167208031973282008F302031DDB
:1000D000031C77280310F21B7B28F00DF10DF20DA5
:1000E000F30B6B2877280130FC002D207E2802308E
:0E00F000FC0034207E280430FC00292008008B
:1000FE00FB14FB1F8928FF30F300F200F100F00023
:08010E00FA0DF20CFF300800AD
:1001160083160313BD1B9228831288139428831217
:10012600881783163D1B9A28831208139C2883126E
:1001360008178316BD1AA22883128812A4288312D0
:10014600881683163D1AAA2883120812AC28831231
:1001560008166418B0280815B12808118815192042
:1001660088118316BD19BA2883128813BC288312F6
:10017600881783163D19C22883120813C4288312D0
:1001860008178316BD18CA2883128812CC28831232
:10019600881683163D18D22883120812D428831293
:1001A60008166418D8280815D928081188151920A2
:0E01B6008811641CE0281C20E128122008009B
:1001C400831203137408003A031DFD287508003ACE
:1001D400031DFD287608003A031DFD287708003A20
:1001E400031DFD28FF30F000FF30F1007F30F200E6
:1001F400FF30F300982983120313770803198C291D
:10020400730803198F29720876068039FA00F217E9
:10021400F617A0017208F8007108FC007008FD00D0
:100224007408FD027508031C750FFC027608031C94
:10023400760FF802F801FC01FD01031C28290310C4
:10024400F20CF10CF00CF80C0130A0007708F3026A
:10025400031C32297E302007F3070318922937291B
:100264007E302007F307031C95291830FA07FD0D8B
:10027400FC0DF80DF00DF10DF20DA00D7408F00257
:100284007508031C750FF1027608031C760FF20241
:10029400760DA004201C50297D145B297408F007F6
:1002A40075080318750FF10776080318760AF20724
:1002B4007D10FA031F307A05031D39297B1B7D1C31
:1002C40082290310F00DF10DF20DA00D7408F00257
:1002D4007508031C750FF1027608031C760FF202F1
:1002E400760D20040139FD070318FC0A0319F80AE6
:1002F400031D8229F80CFC0CFD0CF30A0319922946
:10030400FA1FF8137808F2007C08F1007D08F00069
:100314000030972901304020972902302D20972959
:0E03240004307F2097290830342000000800A4
:10033200831203137008F8007108F000F101F20152
:10034200F301FB01FC019630F300FA017008F100A1
:0C0352007808F000F801F20150200800CB
:10035E0083120313FB01FA01F9018030F800F10C4E
:10036E00F00C031CC3297408F90775080318750FE0
:10037E00FA070318FB0A0310F01FCB297408FA07BB
:10038E0075080318750FFB07FB0CFA0CF90CF80C2B
:10039E00031CB6297B08F3007A08F2007908F100F5
:0603AE007808F0000800D1
:1003B40083120313641083163808BD008B20641461
:0203C40008002F
:1003C60083120313FB01FC01FA0173080319222AA5
:1003D600F2178E30F302F31BF3290319F329252AAA
:1003E600F309F30A08307302031C082AF300F10D1F
:1003F6007208F100F20108307302031C082AF10D9D
:10040600F1017308031D0310102A73080319102A3B
:100416000310F20CF10CF30B0B2A7B1B711C1A2A2E
:10042600031C1A2AF10A0319F20AF21B312AFA1FCF
:10043600342AF209F109F10A0319F20A342AF201FF
:10044600F101342A7B14FB1F372AF201FA1F372ADF
:10045600FF30F200F100FA0DF20C372A0130FC00F1
:10046600392A0030FC00392AFF30FC00FC08031949
:0E0476003D2A43207108F0007208F1000800D2
:10048400063083120313FD00FD0B462A000008000A
:1004940083120313F801F9011030FC00710DF80DFB
:1004A400F90D7408F8027508031C750FF902031896
:1004B400622A7408F80775080318750FF907031002
:0A04C400F00DF10DFC0B502A0800AA
:1004CE0083120313FB017308031D77080319BE2A59
:1004DE0072087606FA007708F3077E30031C7B2A33
:1004EE00F3020318C12A7E2AF302031CC42A7208DF
:1004FE00F8007108FC007008FD00F817F6170310DD
:10050E00F201F101F0011830A0007D1C982A740848
:10051E00F00775080318750FF10776080318760FA4
:10052E00F207F20CF10CF00CF80CFC0CFD0C0310A5
:10053E00A00B8C2AF21BA82AF80DF00DF10DF20D6E
:10054E00F3037B1B701CBA2AF81FBA2AF00A031990
:10055E00F10A0319F20A031DBA2AF20CF10CF00C7F
:10056E00F30A0319C12AFA1FF2130030C62A01300A
:10057E002D20C62A02307F20C62A043034200000E7
:02058E00080063
:1005900083160313B801BA01BB011030BC0004304C
:1005A0003B020318F62AF0308312860083163C09BA
:1005B0008600192019200F3083120605F0007008FC
:1005C0008316B90070080319F02A3A08B8003908F0
:1005D0000319EE2AB90CB913B80AE72A0430BB0094
:1005E000BC0D3C100430BA07BB0ACF2A3808F00013
:0205F000080001
:1005F20083120313EB01EC0107150630FD00FD0B1E
:10060200002B0000071187191B2B6B08F1006C08E7
:10061200F200EB0A0319EC0A7208753C031D132B56
:100622007108303C0318182BF001F1014A2B00002D
:100632000000042BEB01EC01871D322B6B08F1004B
:100642006C08F200EB0A0319EC0A7208753C031DF0
:100652002C2B7108303C03182F2B322B000000008A
:100662001D2B6B08F0006C08F10099212830F40072
:100672007E30F5000C30F6007A30F7006722003049
:10068200F4000030F5000030F6008030F700E22080
:04069200E321080058
:100696005D2B803083120313EB00702BC030EB0010
:1006A600702B9430EB00702BD430EB00702B803025
:1006B600EB00702B831203136B08013A03194C2BC2
:1006C6006B08023A0319512B6B08033A0319542B92
:1006D6006B08043A0319572B5A2B6C03F0006B086E
:1006E600F0077008EB00641470088316BD008B20B9
:0E06F60064106D088316BD008B20641408008C
:10070400C82270088312EB000F300605F0000319AD
:0C0714008D2B4222862B6B08F0000800A1
:1007200083120313EE0105306E0203189E2B6E0830
:100730006D07840020308000EE0A932B6E086D0751
:1007400084008001EE036E086D07EF000A30F400AC
:10075000F5016B08F0006C08F1004A227808F000FF
:100760007908F1003030F0076F08840070088000CD
:100770000A30F400F5016B08F0006C08F1004A2221
:100780007008EB007108EC0000307106031DCA2BE5
:1007900000307006031DCD2BCF2BEE03A32B0800DA
:1007A000E22B803083120313EB00F52BC030EB00FB
:1007B000F52B9430EB00F52BD430EB00F52B80308B
:1007C000EB00F52B831203136B08013A0319D12BAD
:1007D0006B08023A0319D62B6B08033A0319D92B7D
:1007E0006B08043A0319DC2BDF2B6C03F0006B0859
:1007F000F0077008EB0070088316BD008B206410B2
:10080000EE016E086D07840000080319102C6E08B5
:100810006D07840000088316B800DA21EE0A012C67
:040820006414080054
:10082400831203136B08F0006C08F1000B30F40022
:100834000030F500AF217008F43EED0001300318DC
:10084400013E7107EE0007168316B601B701831245
:100854006E0883163702031D332C83126D0883162A
:10086400360203183B2C00000000B60A0319B70A2D
:10087400292C831207128316B601B70183126D085F
:10088400203CF1006E08031C013E4E3CF20072084D
:1008940083163702031D502C710836020318582C96
:0E08A40000000000B60A0319B70A402C080035
:0E08B2008312031363088A00620882000800A4
:1008C00083120313EB01EC0107140630FD00FD0B4E
:1008D000672C000007108718822C6B08F1006C0849
:1008E000F200EB0A0319EC0A7208753C031D7A2C1E
:1008F0007108303C03187F2CF001F101B12C00008D
:1009000000006B2CEB01EC01871C992C6B08F100AB
:100910006C08F200EB0A0319EC0A7208753C031D1F
:10092000932C7108303C0318962C992C0000000081
:10093000842C6B08F0006C08F10099212830F40039
:100940007E30F5000C30F6007A30F7006722003078
:10095000F4000030F5000030F6008030F700E220AF
:04096000E321080087
:1009640083120313E701E80180306806F000803049
:100974007002031DBF2C283067020318CB2C5A3099
:10098400EB000030EC0012248312E70A0319E80A92
:04099400B62C080075
:10099800013083160313BD008B200130EB000130BA
:1009A800EC005330ED00D0230B30FB002630FC0068
:1009B8005D30FD00FD0BDE2CFC0BDE2CFB0BDE2C72
:0609C80000000000080021
:1009CE00013083160313BD008B200130EB00013084
:1009DE00EC002930ED00D02382237008E700700868
:1009EE0003191B2D01308316BD008B200130EB0047
:1009FE000130EC003630ED00D0230230EB00013038
:100A0E00EC0030306707ED004B230B30FB00263037
:100A1E00FC005D30FD00FD0B122DFC0B122DFB0BAF
:0C0A2E00122D000000001C2DF32C08000D
:100A3A00013083160313BD008B200130EB00013017
:100A4A00EC004330ED00D0230930FB001E30FC00DF
:100A5A00E430FD00FD0B2F2DFC0B2F2DFB0B2F2D52
:100A6A00000060247008E7007108E800F9227008A5
:100A7A00E9007108EA006708EB006808EC00AF308B
:100A8A00ED0090230130EB000130EC002530ED0041
:100A9A00D0230130EB000430EC00AF30ED00D0235E
:100AAA006908EB006A08EC00AF30ED0090230230D1
:100ABA00EB000130EC002130ED00D0230230EB00D6
:100ACA000430EC00AF30ED00D0230D30FB002D30A8
:100ADA00FC00D730FD00FD0B702DFC0B702DFB0BBD
:080AEA00702D0000000008005F
:0A0AF200FF3083160313860008008E
:100AFC00831603138811081108128812081388131F
:100B0C0083128811081188130813881208121C20EC
:100B1C001C201C20881608168815192088111C20EA
:100B2C008815192088111C208815192088111C2063
:100B3C0008128815192088111C2088151920881175
:100B4C00881288178815192088111C2088130816FC
:100B5C0088151920881108128815192088111C2055
:100B6C0088151920881108168815192088111C2041
:100B7C000812881519208811881708178816081666
:0C0B8C008815192088111C206414080032
:100B980059248A110A128000840AE20A0319E30A16
:080BA800F003031DCC2D080031
:100BB0004826831603130710871407118715071299
:100BC0007E257925CC24E7241D25B2240130831607
:100BD000BD008B200130EB000130EC00A030ED00B7
:060BE000D023F12DF22DDF
:100C900021308400413083120313F000F830E20069
:100CA0000530E300CC25A03084000F30F00039304F
:0A0CB000E2000630E300CC25080046
:080BF000533432343A3400346E
:080BF800533431343A34003467
:100C00005034723465347334733420346134203496
:0A0C10004B34653479343A34003473
:100C1A0059346F3475342034503472346534733433
:0A0C2A007334653464343A34003446
:100C3400543465347334743469346E346734203412
:100C4400533465346E3473346F3472347334003413
:100C54004C3443344434203457346F3472346B345A
:0E0C640069346E34673420344F344B3400341E
:100C720041346C346C342034503461347234743402
:0E0C8200733420344F344B3420343F3400346C
:02400E004A2F37
:00000001FF
