:02000000B72C1B
:10000800FF00030E8301D4000A08D5008A015508B1
:0C0018008A00540E8300FF0E7F0E0900CA
:0E002400213083120313FD00FD0B1628080087
:06003200000000000800C0
:100038000F3083120313FC004730FD00FD0B22280C
:0A004800FC0B222800000000080055
:100052000030831603133006031D312800302F06AB
:10006200031D372883128514051043280030831698
:100072003006031D3E285A302F06031D43288312E3
:06008200851005140800C2
:1000880083120313F801F9011030FC00710DF80D0B
:10009800F90D7408F8027508031C750FF9020318A6
:1000A8005C287408F80775080318750FF90703101A
:0A00B800F00DF10DFC0B4A280800C2
:1000C20083160313AF1B6828831288136A288312CE
:1000D200881783162F1B7028831208137228831225
:1000E20008178316AF1A7828831288127A28831287
:1000F200881683162F1A80288312081282288312E8
:1001020008165318862808158728081188151920FB
:1001120088118316AF1990288312881392288312AC
:10012200881783162F199828831208139A28831286
:1001320008178316AF18A02883128812A2288312E8
:10014200881683162F18A82883120812AA28831249
:1001520008165318AE280815AF280811881519205B
:0E0162008811531CB6281C20B7281220080054
:1001700083120313FB01FA01F9018030F800F10C3E
:10018000F00C031CCC287408F90775080318750FC8
:10019000FA070318FB0A0310F01FD4287408FA07A3
:1001A00075080318750FFB07FB0CFA0CF90CF80C1B
:1001B000031CBF287B08F3007A08F2007908F100DD
:0601C0007808F0000800C1
:1001C60083160313AC0105302C020318F1282C0802
:1001D6002B07840020308000AC0AE6282C082B0769
:1001E60084008001AC032C082B07AD000A30F40014
:1001F600F5012908F0002A08F10044207808F000EB
:100206007908F1003030F00783162D088400700855
:1002160080000A30F400F5012908F0002A08F100F0
:10022600442070088316A9007108AA0000307106E0
:10023600031D1F2900307006031D22292429AC0343
:04024600F62808008E
:10024A0083120313531083162908AF006120531435
:02025A0008009A
:10025C00831603132908F0002A08F1000B30F40070
:10026C000030F500B8207008F43E8316AB00013066
:10027C000318013E7107AC00831207168316AD01FB
:10028C00AE012C082E02031D4D292B082D0203183C
:10029C00552900000000AD0A0319AE0A4729831244
:1002AC0007128316AD01AE012B08203CF1002C087F
:1002BC00031C013E4E3CF20072082E02031D6829FD
:1002CC0071082D020318702900000000AD0A0319F3
:1002DC00AE0A5A292908AF002A08B00029200800C4
:1002EC0083160313A901AB01AC011030AD0004302F
:1002FC002C020318A429F0308312860083162D09D2
:10030C008600192019200F3083120605F0007008A2
:10031C008316AA00700803199E292B08A9002A0825
:10032C0003199C29AA0CAA13A90A95290430AC001C
:10033C00AD0D2D100430AB07AC0A7D292908F00057
:02034C000800A7
:10034E00063083120313FD00FD0BAB2900000800DD
:10035E0083160313A501A6012008A7002108A800F3
:10036E0080302106F00080307002031DC02900305D
:10037E0020020318CE290130A5000030A600200867
:10038E00003CA7002108031C013EA801A802270873
:10039E00A9002808AA002208AB00E3200630A3001B
:1003AE000030A4002408003C031DDF292308003C74
:1003BE000318FA2923082207F20001302302F00065
:1003CE000030031C013E2402F10070082207840055
:1003DE000008F00072088400700880000130A3024B
:1003EE00031CA403D929220884002030800025088C
:1003FE0026040319182AA301A40123082207840046
:10040E000008203A031D0F2AA30A0319A40A042A7E
:10041E000130A302031CA4032308220784002D30FD
:04042E008000080042
:100432002B2A803083160313A0003E2AC030A0006E
:100442003E2A9430A0003E2AD430A0003E2A8030BA
:10045200A0003E2A831603132008013A03191A2A20
:100462002008023A03191F2A2008033A0319222AF4
:100472002008043A0319252A282A2103F00020081B
:10048200F0077008A0007008AF0061205310EF0160
:100492006F08831622078400000803195A2A831260
:1004A2006F088316220784000008A9002521EF0A9D
:0804B200492A831253140800CB
:1004BA00922A313083120313F000D52A3230F00029
:1004CA00D52A3330F000D52A4130F000D52A34300D
:1004DA00F000D52A3530F000D52A3630F000D52A7A
:1004EA004230F000D52A3730F000D52A3830F000F3
:1004FA00D52A3930F000D52A4330F000D52A2A30DF
:10050A00F000D52A3030F000D52A2330F000D52A61
:10051A004430F000D52AF001D52A831203136F085C
:10052A00013A03195E2A6F08023A0319632A6F080F
:10053A00033A0319662A6F08043A0319692A6F08ED
:10054A00053A03196C2A6F08063A03196F2A6F08CD
:10055A00073A0319722A6F08083A0319752A6F08AD
:10056A00093A0319782A6F080A3A03197B2A6F088D
:10057A000B3A03197E2A6F080C3A0319812A6F086D
:10058A000D3A0319842A6F080E3A0319872A6F084D
:10059A000F3A03198A2A6F08103A03198D2A902AEA
:0205AA00080047
:1005AC00E82A803083160313A000FB2AC030A00079
:1005BC00FB2A9430A000FB2AD430A000FB2A803008
:1005CC00A000FB2A831603132008013A0319D72A2B
:1005DC002008023A0319DC2A2008033A0319DF2AFF
:1005EC002008043A0319E22AE52A2103F000200826
:1005FC00F0077008A0008312531470088316AF0024
:10060C006120531083162208AF0061205314080098
:0E061C008312031352088A005108820008005E
:10062A00762170088312EF000F300605F0000319D7
:0C063A00202BA721192B6F08F0000800EE
:10064600831603132008840000080319372B20089B
:1006560084000008F1002108840071080006031DCB
:10066600372BA00AA10A232B200884000008F000DB
:10067600210884000008F002F101031CF1030800C0
:1006860083160313A001A10180302106F0008030FB
:100696007002031D502B2830200203185D2B5A30A0
:1006A600A9000030AA002E2183160313A00A0319FD
:0606B600A10A472B080019
:1006BC00313083120313E3003230E4003330E500B1
:1006CC003430E600E701E801E901EA01EB01EC0155
:1006DC00ED0101308316AF00612001308316A000BC
:1006EC000130A1003830A2001922E801E901803064
:1006FC006906F00080307002031D862B04306802FE
:10070C000318B72BDB015B08003A031D912B152353
:10071C007008DB00892B6808563EEE005B08EF0082
:10072C005D22831203136E0884007008800002306F
:10073C008316A0008312680A8316A1002A30A20037
:10074C00D622E80A0319E90A0330FB000830FC0042
:10075C007730FD00FD0BB02BFC0BB02BFB0BB02B43
:10076C007D2BDA0156308316A0006330A1002323C1
:10077C0000307106031DC42B00307006031DE42BE2
:10078C000130AF00612001308316A0000130A100C0
:10079C002F30A20019220B30FB002630FC005D30FC
:1007AC00FD00FD0BD72BFC0BD72BFB0BD72B000025
:1007BC00000043238312EA01EB01562C8312EA0A50
:1007CC000319EB0A01308316AF0061200130831648
:1007DC00A0000130A1002030A20019220B30FB0038
:1007EC002630FC005D30FD00FD0BFA2BFC0BFA2BC8
:1007FC00FB0BFA2B0000000080306B06F000803001
:10080C007002031D0B2C03306A02031C562C3C3067
:10081C00EC000030ED008030F00080306D0670028E
:10082C00031D1A2C6C08003C0318542C0130831641
:10083C00AF00612001308316A0000130A1004830C8
:10084C00A20019226C088316A00083126D0883166F
:10085C00A1005C30A200AF210130A0000730A10044
:10086C005C30A200192201308316A0000D30A100CB
:10087C004F30A20019220330FB008A30FC005530A7
:10088C00FD00FD0B472CFC0B472CFB0B472C0000F1
:10089C0000000130EC02031CED03112CEA01EB010A
:0408AC006F2B0800A6
:0A08B000FF308316031386000800D2
:1008BA000E238A110A128000840AD10A0319D20A65
:0808CA00F003031D5D2C080082
:1008D200831603138811081108128812081388134B
:1008E20083128811081188130813881208121C2019
:1008F2001C201C20881608168815192088111C2017
:100902008815192088111C208815192088111C208F
:1009120008128815192088111C20881519208811A1
:10092200881288178815192088111C208813081628
:1009320088151920881108128815192088111C2081
:1009420088151920881108168815192088111C206D
:100952000812881519208811881708178816081692
:0C0962008815192088111C20531408006F
:10096E0010250630831603139F00071087140711F6
:10097E00871507128510051083128514051069243A
:10098E0058240630FB001330FC00AD30FD00FD0B8B
:10099E00CE2CFC0BCE2CFB0BCE2C000000005E23CD
:0409AE00D72CD82C3E
:100A200020308400313083120313F000DE30D10017
:080A30000430D2005D2408002F
:1009BC00573472346F346E346734203450346134AD
:0E09CC007334733477346F347234643400340F
:1009DA0043346F347234723465346334743421347A
:0209EA000034D7
:1009EC0045346E347434653472342034503461348C
:1009FC007334733477346F34723464343A3400346F
:0E0A0C0057346134693474343A342034003481
:040A1A0073340034FD
:02400E004A2F37
:00000001FF
