:02000000EA29EB
:10000800FF00030E8301AF000A08AE008A012E0824
:0C0018008A002F0E8300FF0E7F0E0900EF
:06002400000000000800CE
:0E002A00213083120313FD00FD0B192808007E
:100038000F3083120313FC004730FD00FD0B22280C
:0A004800FC0B222800000000080055
:1000520083120313BA1B2F288813302888173A1BE0
:100062003428081335280817BA1A392888123A286A
:1000720088163A1A3E2808123F2808162D184328D7
:10008200081544280811881512208811BA194B281E
:1000920088134C2888173A19502808135128081732
:1000A200BA1855288812562888163A185A2808125B
:1000B2005B2808162D185F28081560280811881576
:1000C200122088112D1C67281C2068281520080082
:1000D200063083120313FD00FD0B6D28000008009B
:1000E20083120313B501B701B8011030B90004300F
:1000F200380203189D28F0308600390983168600DD
:10010200122012200F3083120605F0007008B6008C
:100112007008031997283708B5003608031995287F
:10012200B60CB613B50A8E280430B800B90D3910D2
:0E0132000430B707B80A78283508F000080036
:10014000831203132D103508BA0029202D1408003E
:0E015000831203132C088A002B08820008007B
:10015E00C128803083120313B100D428C030B100FF
:10016E00D4289430B100D428D430B100D4288030B3
:10017E00B100D428831203133108013A0319B028B1
:10018E003108023A0319B5283108033A0319B82881
:10019E003108043A0319BB28BE283203F000310897
:1001AE00F0077008B1007008BA0029202D10B401B4
:1001BE0034083307840000080319ED283408330788
:1001CE0084000008B500A020B40ADF282D14080012
:1001DE0071207008B1000F300605F0000319F928E0
:0A01EE006920F2283108F000080033
:1001F8000C3083120313BA0029200130B1000130FA
:10020800B2002030B300AF200B30FB002630FC00DA
:100218005D30FD00FD0B0E29FC0B0E29FB0B0E2992
:06022800000000000800C8
:0A022E00FF3083160313860008005A
:1002380083120313B0010130BA002920EF2070089F
:10024800B0007008003A03198E294E293130B000E9
:100258007E293230B0007E293330B0007E29343018
:10026800B0007E293530B0007E293630B0007E29B6
:100278003730B0007E293830B0007E293930B000E0
:100288007E292A30B0007E293030B0007E29233004
:10029800B0007E293008013A03192A293008023AA9
:1002A80003192D293008033A031930293008053A73
:1002B800031933293008063A031936293008073A52
:1002C800031939293008093A03193C2930080A3A30
:1002D80003193F2930080B3A0319422930080D3A0F
:1002E8000319452930080E3A0319482930080F3AEE
:1002F80003194B2930082A3A031987293008233A69
:10030800031987298B290130BA0029208E29300842
:08031800B500A0202229080015
:100320008316031388110811081288120813881302
:1003300083128811081188130813881208121C20D0
:100340001C201C20881608168815122088111C20D5
:100350008815122088111C208815122088111C2055
:1003600008128815122088111C2088151220881167
:10037000881288178815122088111C2088130816E7
:1003800088151220881108128815122088111C2047
:1003900088151220881108168815122088111C2033
:1003A0000812881512208811881708178816081651
:0C03B0008815122088111C202D14080054
:1003BC00A8208A110A128000840AAB0A0319AC0A1D
:0803CC00F003031DDE29080007
:1003D400543083120313A0006530A1007330A200CF
:1003E4007430A3002030A4003130A5002030A600D2
:1003F4007330A7006530A8006330A900AA019021DA
:080404001721FC201C21052A30
:02400E004A2F37
:00000001FF
