:02000000162EBA
:10000800FF00030E83018316A3000A08A2008A01D9
:0E00180022088A00230E8300FF0E7F0E0900CF
:100026000F3083120313FC004730FD00FD0B192827
:0A003600FC0B192800000000080070
:0E004000213083120313FD00FD0B242808005D
:06004E00000000000800A4
:0E005400F201F101F001F801F30100300800A3
:100062007B15FB1F3B280130F300F201F101F00187
:08007200FA0DF20CFF3008004A
:08007A00FA1FF2130030080028
:100082007B14FB1F4C28F201FA1FFF30F200F10033
:0A009200F000FA0DF20CFF30080038
:10009C0083160313BA1B552883128813572883120F
:1000AC00881783163A1B5D28831208135F28831266
:1000BC0008178316BA1A65288312881267288312C8
:1000CC00881683163A1A6D28831208126F28831229
:1000DC0008166F187328081574280811881527201E
:1000EC0088118316BA197D28831288137F288312EE
:1000FC00881783163A1985288312081387288312C8
:10010C0008178316BA188D28831288128F28831229
:10011C00881683163A18952883120812972883128A
:10012C0008166F189B2808159C280811881527207D
:0E013C0088116F1CA3281320A428202008007F
:10014A00A0017208031DBA287108F2007008F100B4
:10015A00F001A0157208031DBA287108F200F10116
:10016A00A011201672080319C8282008F302031DDB
:10017A00031CCC280310F21BD028F00DF10DF20D50
:10018A00F30BC028CC280130FC002A20D3280230E7
:0E019A00FC003120D3280430FC003D2008007A
:0601A800FB15FF3008000A
:1001AE00FB14FB1FE128FF30F300F200F100F0001A
:0801BE00FA0DF20CFF300800FD
:1001C60083120313FB017308031D770803193A29E9
:1001D60072087606FA007708F3077E30031CF728C4
:1001E600F30203183D29FA28F302031C402972087A
:1001F600F8007108FC007008FD00F817F6170310E8
:10020600F201F101F0011830A0007D1C14297408D8
:10021600F00775080318750FF10776080318760FAF
:10022600F207F20CF10CF00CF80CFC0CFD0C0310B0
:10023600A00B0829F21B2429F80DF00DF10DF20D83
:10024600F3037B1B701C3629F81F3629F00A0319A5
:10025600F10A0319F20A031D3629F20CF10CF00C0F
:10026600F30A03193D29FA1FF2130030422901301F
:100276002A2042290230D7204229043031200000AA
:0202860008006E
:10028800831203137408003A031D5F297508003AA6
:10029800031D5F297608003A031D5F297708003A95
:1002A800031D5F29FF30F000FF30F1007F30F200BE
:1002B800FF30F300FA298312031377080319EE2994
:1002C80073080319F129720876068039FA00F217C3
:1002D800F617A0017208F8007108FC007008FD000C
:1002E8007408FD027508031C750FFC027608031CD0
:1002F800760FF802F801FC01FD01031C8A2903109E
:10030800F20CF10CF00CF80C0130A0007708F302A5
:10031800031C94297E302007F3070318F429992930
:100328007E302007F307031CF7291830FA07FD0D64
:10033800FC0DF80DF00DF10DF20DA00D7408F00292
:100348007508031C750FF1027608031C760FF2027C
:10035800760DA004201CB2297D14BD297408F0076D
:1003680075080318750FF10776080318760AF2075F
:100378007D10FA031F307A05031D9B297B1B7D1C0A
:10038800E4290310F00DF10DF20DA00D7408F00230
:100398007508031C750FF1027608031C760FF2022C
:1003A800760D20040139FD070318FC0A0319F80A21
:1003B800031DE429F80CFC0CFD0CF30A0319F429BD
:1003C800FA1FF8137808F2007C08F1007D08F000A5
:1003D8000030F9290130D420F92902302A20F929DE
:0E03E8000430D720F929083031200000080029
:1003F6000030831603133606031D032A0030350624
:10040600031D092A831285140510152A0030831648
:100416003606031D102A5A303506031D152A831287
:060426008510051408001A
:10042C00063083120313FD00FD0B1A2A000008008E
:10043C0083120313FB01FA01F9018030F800F10C6F
:10044C00F00C031C322A7408F90775080318750F91
:10045C00FA070318FB0A0310F01F3A2A7408FA076C
:10046C0075080318750FFB07FB0CFA0CF90CF80C4C
:10047C00031C252A7B08F3007A08F2007908F100A6
:06048C007808F0000800F2
:10049200831203137008F8007108F000F101F201F1
:1004A200F301FB01FC019630F300FA017008F10040
:0C04B2007808F000F801F201A520080015
:1004BE0083120313F801F9011030FC00710DF80DD1
:1004CE00F90D7408F8027508031C750FF90203186C
:1004DE00772A7408F80775080318750FF9070310C3
:0A04EE00F00DF10DFC0B652A08006B
:1004F80083160313B501B701B8011030B9000430F1
:1005080038020318AA2AF0308312860083163909A4
:100518008600272027200F3083120605F000700878
:100528008316B60070080319A42A3708B5003608E0
:100538000319A22AB60CB613B50A9B2A0430B800D0
:10054800B90D39100430B707B80A832A3508F00006
:02055800080099
:10055A0083120313FB01FC01FA0173080319EC2A45
:10056A00F2178E30F302F31BBD2A0319BD2AEF2AB4
:10057A00F309F30A08307302031CD22AF300F10DBF
:10058A007208F100F20108307302031CD22AF10D3D
:10059A00F1017308031D0310DA2A73080319DA2A12
:1005AA000310F20CF10CF30BD52A7B1B711CE42A05
:1005BA00031CE42AF10A0319F20AF21BFB2AFA1FA6
:1005CA00FE2AF209F109F10A0319F20AFE2AF201D6
:1005DA00F101FE2A7B14FB1F012BF201FA1F012BEA
:1005EA00FF30F200F100FA0DF20C012B0130FC0091
:1005FA00032B0030FC00032BFF30FC00FC0803191E
:0E060A00072B41207108F0007208F100080073
:10061800831203136F1083163508BA004E206F1427
:020628000800C8
:10062A0083160313B201053032020318232B320852
:10063A003107840020308000B20A182B32083107B3
:10064A0084008001B20332083107B3000A30F40093
:10065A00F5012F08F0003008F1005F227808F00059
:10066A007908F1003030F0078316330884007008E7
:10067A0080000A30F400F5012F08F0003008F1007C
:10068A005F2270088316AF007108B000003071064F
:10069A00031D512B00307006031D542B562BB20339
:0406AA00282B0800F1
:1006AE0083160313AF01B001831207150630FD0048
:1006BE00FD0B5F2B00000711831287197C2B83160D
:1006CE002F08F1003008F200AF0A0319B00A7208C1
:1006DE00753C031D742B7108303C0318792BF00107
:1006EE00F101AF2B00000000632B8316AF01B001A8
:1006FE008312871D962B83162F08F1003008F20007
:10070E00AF0A0319B00A7208753C031D902B7108CD
:10071E00303C0318932B962B000000007F2B831682
:10072E002F08F0003008F10049222830F4007E3006
:10073E00F5000C30F6007A30F700E3200030F400BC
:10074E000030F5000030F6008030F7004421AD2275
:02075E00080091
:10076000831603132F08F0003008F1000B30F4005B
:100770000030F5001E227008F43E8316B1000130EF
:100780000318013E7107B200831207168316B301E6
:10079000B40132083402031DCF2B31083302031891
:1007A000D72B00000000B30A0319B40AC92B831227
:1007B00007128316B301B4013108203CF10032085E
:1007C000031C013E4E3CF20072083402031DEA2B6A
:1007D000710833020318F22B00000000B30A03195A
:1007E000B40ADC2B2F08B5003008B600FB21080046
:1007F0000A2C803083160313AF001D2CC030AF00CD
:100800001D2C9430AF001D2CD430AF001D2C803037
:10081000AF001D2C831603132F08013A0319F92B7F
:100820002F08023A0319FE2B2F08033A0319012C53
:100830002F08043A0319042C072C3003F0002F086A
:10084000F0077008AF0083126F1470088316BA00A7
:100850004E206F1083163108BA004E206F14080026
:0E0860008316031321088A0020088200080076
:10086E00492C803083160313AF005C2CC030AF00D0
:10087E005C2C9430AF005C2CD430AF005C2C8030FC
:10088E00AF005C2C831603132F08013A0319382C82
:10089E002F08023A03193D2C2F08033A0319402C56
:1008AE002F08043A0319432C462C3003F0002F086E
:1008BE00F0077008AF007008BA004E206F10831654
:1008CE00B20132083107840000080319772C320870
:1008DE00310784000008B5000C238316B20A682C79
:0608EE0083126F140800E4
:1008F40083160313AF01B001831207140630FD0001
:10090400FD0B822C00000710831287189F2C83167E
:100914002F08F1003008F200AF0A0319B00A720878
:10092400753C031D972C7108303C03189C2CF00176
:10093400F101D22C00000000862C8316AF01B00117
:100944008312871CB92C83162F08F1003008F2009B
:10095400AF0A0319B00A7208753C031DB32C710861
:10096400303C0318B62CB92C00000000A22C8316CE
:100974002F08F0003008F10049222830F4007E30BE
:10098400F5000C30F6007A30F700E3200030F40074
:100994000030F5000030F6008030F7004421AD222D
:0209A400080049
:1009A6007C227008AF000F3083120605F000031991
:0E09B600DE2C1622D62C83162F08F000080027
:1009C400013083160313BA004E2001308316AF00A2
:1009D4000130B0004630B1003724D3247008A4009D
:1009E40070080319182D0130BA004E200130831607
:1009F400AF000130B0003930B10037240230831623
:100A0400AF000130B00030302407B100F8230B30C0
:100A1400FB002630FC005D30FD00FD0B0F2DFC0BB0
:100A24000F2DFB0B0F2D00000000192DEF2C0800DB
:100A3400013083160313BA004E2001308316AF0031
:100A44000130B0005330B10037240B30FB002630A6
:100A5400FC005D30FD00FD0B2D2DFC0B2D2DFB0B43
:080A64002D2D00000000080028
:100A6C0083160313A401A50180302506F000803005
:100A7C007002031D432D283024020318502D5A30C8
:100A8C00AF000030B000B02383160313A40A03197F
:060A9C00A50A3A2D080036
:100AA200013083160313BA004E2001308316AF00C3
:100AB2000130B0002530B10037240930FB001E3070
:100AC200FC00E430FD00FD0B642DFC0B642DFB0BE0
:100AD200642D00007A248312031370088316A40085
:100AE2007108A50057238312031370088316A6000A
:100AF2007108A7002408AF002508B000A830B10093
:100B020015230130AF000130B0002130B10037248D
:100B120001308316AF000430B000A830B100372492
:100B220083162608AF002708B000A830B1001523AD
:100B32000230AF000130B0003530B100372402304E
:100B42008316AF000430B000A830B10037240D3056
:100B5200FB002D30FC00D730FD00FD0BAE2DFC0B51
:0C0B6200AE2DFB0BAE2D000000000800C3
:0A0B6E00FF30831603138600080011
:100B780083160313881108110812881208138813A2
:100B88008312881108118813081388120812132079
:100B9800132013208816081688152720881113207B
:100BA80088152720881113208815272088111320DD
:100BB80008128815272088111320881527208811E6
:100BC800881288178815272088111320881308167B
:100BD80088152720881108128815272088111320C6
:100BE80088152720881108168815272088111320B2
:100BF80008128815272088118817081788160816DC
:0C0C080088152720881113206F140800A5
:100C140030248A110A128000840AA00A0319A10A46
:080C2400F003031D0A2E080075
:100C2C009A260630831603139F00071087140711AA
:100C3C008715071285100510831285140510BC2525
:100C4C00B7251A25E22451250630FB001330FC0091
:100C5C00AD30FD00FD0B302EFC0B302EFB0B302E7F
:100C6C000000000036250130BA004E2001308316FA
:100C7C00AF000130B0006230B1003724442E452E55
:100D3400213084004E3083120313F0004B308316AD
:0A0D4400A0000630A1000A260800F6
:080C9600533431343A340034C8
:100C9E00543465347334743469346E3467342034A8
:100CAE00533465346E3473346F34723473340034A9
:080CBE00533432343A3400349F
:100CC60059346F3475342034503472346534733487
:0A0CD6007334653464343A3400349A
:100CE00050347234653473347334203461342034B6
:0A0CF0004B34653479343A34003493
:100CFA004C3443344434203457346F3472346B34B4
:0E0D0A0069346E34673420344F344B34003477
:100D180041346C346C34203450346134723474345B
:0A0D2800733420344F344B34003490
:02400E004A2F37
:00000001FF
